{
  "contractName": "Accounts",
  "abi": [
    {
      "inputs": [],
      "payable": false,
      "stateMutability": "nonpayable",
      "type": "constructor"
    },
    {
      "anonymous": false,
      "inputs": [
        {
          "indexed": false,
          "name": "user",
          "type": "address"
        }
      ],
      "name": "Registered",
      "type": "event"
    },
    {
      "constant": false,
      "inputs": [
        {
          "name": "_name",
          "type": "string"
        },
        {
          "name": "_email",
          "type": "string"
        },
        {
          "name": "_logo",
          "type": "string"
        },
        {
          "name": "_description",
          "type": "string"
        },
        {
          "name": "_aType",
          "type": "uint8"
        },
        {
          "name": "price",
          "type": "uint256"
        },
        {
          "name": "_institute",
          "type": "string"
        }
      ],
      "name": "register",
      "outputs": [],
      "payable": true,
      "stateMutability": "payable",
      "type": "function"
    },
    {
      "constant": true,
      "inputs": [],
      "name": "getAccount",
      "outputs": [
        {
          "name": "name",
          "type": "string"
        },
        {
          "name": "email",
          "type": "string"
        },
        {
          "name": "logo",
          "type": "string"
        },
        {
          "name": "description",
          "type": "string"
        },
        {
          "name": "aType",
          "type": "uint8"
        },
        {
          "name": "price",
          "type": "uint256"
        },
        {
          "name": "institute",
          "type": "string"
        }
      ],
      "payable": false,
      "stateMutability": "view",
      "type": "function"
    },
    {
      "constant": true,
      "inputs": [],
      "name": "verifiersCount",
      "outputs": [
        {
          "name": "total",
          "type": "uint256"
        }
      ],
      "payable": false,
      "stateMutability": "view",
      "type": "function"
    },
    {
      "constant": true,
      "inputs": [
        {
          "name": "pIndex",
          "type": "uint256"
        }
      ],
      "name": "getVerifier",
      "outputs": [
        {
          "name": "verifier",
          "type": "address"
        },
        {
          "name": "name",
          "type": "string"
        },
        {
          "name": "email",
          "type": "string"
        },
        {
          "name": "logo",
          "type": "string"
        },
        {
          "name": "description",
          "type": "string"
        },
        {
          "name": "aType",
          "type": "uint8"
        },
        {
          "name": "price",
          "type": "uint256"
        }
      ],
      "payable": false,
      "stateMutability": "view",
      "type": "function"
    },
    {
      "constant": true,
      "inputs": [
        {
          "name": "_account",
          "type": "address"
        }
      ],
      "name": "getPrice",
      "outputs": [
        {
          "name": "price",
          "type": "uint256"
        }
      ],
      "payable": false,
      "stateMutability": "view",
      "type": "function"
    },
    {
      "constant": false,
      "inputs": [],
      "name": "kill",
      "outputs": [],
      "payable": false,
      "stateMutability": "nonpayable",
      "type": "function"
    }
  ],
  "bytecode": "0x608060405234801561001057600080fd5b50336000806101000a81548173ffffffffffffffffffffffffffffffffffffffff021916908373ffffffffffffffffffffffffffffffffffffffff16021790555061166e806100606000396000f300608060405260043610610078576000357c0100000000000000000000000000000000000000000000000000000000900463ffffffff1680633561bc271461007d57806341976e09146102b657806341c0e1b51461030d5780637f05c82814610324578063d48e353a1461034f578063db613e81146104da575b600080fd5b34801561008957600080fd5b506100a860048036038101908080359060200190929190505050610736565b604051808873ffffffffffffffffffffffffffffffffffffffff1673ffffffffffffffffffffffffffffffffffffffff168152602001806020018060200180602001806020018760018111156100fa57fe5b60ff16815260200186815260200185810385528b818151815260200191508051906020019080838360005b83811015610140578082015181840152602081019050610125565b50505050905090810190601f16801561016d5780820380516001836020036101000a031916815260200191505b5085810384528a818151815260200191508051906020019080838360005b838110156101a657808201518184015260208101905061018b565b50505050905090810190601f1680156101d35780820380516001836020036101000a031916815260200191505b50858103835289818151815260200191508051906020019080838360005b8381101561020c5780820151818401526020810190506101f1565b50505050905090810190601f1680156102395780820380516001836020036101000a031916815260200191505b50858103825288818151815260200191508051906020019080838360005b83811015610272578082015181840152602081019050610257565b50505050905090810190601f16801561029f5780820380516001836020036101000a031916815260200191505b509b50505050505050505050505060405180910390f35b3480156102c257600080fd5b506102f7600480360381019080803573ffffffffffffffffffffffffffffffffffffffff169060200190929190505050610bab565b6040518082815260200191505060405180910390f35b34801561031957600080fd5b50610322610bf7565b005b34801561033057600080fd5b50610339610c88565b6040518082815260200191505060405180910390f35b6104d8600480360381019080803590602001908201803590602001908080601f0160208091040260200160405190810160405280939291908181526020018383808284378201915050505050509192919290803590602001908201803590602001908080601f0160208091040260200160405190810160405280939291908181526020018383808284378201915050505050509192919290803590602001908201803590602001908080601f0160208091040260200160405190810160405280939291908181526020018383808284378201915050505050509192919290803590602001908201803590602001908080601f0160208091040260200160405190810160405280939291908181526020018383808284378201915050505050509192919290803560ff16906020019092919080359060200190929190803590602001908201803590602001908080601f0160208091040260200160405190810160405280939291908181526020018383808284378201915050505050509192919290505050610c95565b005b3480156104e657600080fd5b506104ef61108c565b604051808060200180602001806020018060200188600181111561050f57fe5b60ff1681526020018781526020018060200186810386528d818151815260200191508051906020019080838360005b8381101561055957808201518184015260208101905061053e565b50505050905090810190601f1680156105865780820380516001836020036101000a031916815260200191505b5086810385528c818151815260200191508051906020019080838360005b838110156105bf5780820151818401526020810190506105a4565b50505050905090810190601f1680156105ec5780820380516001836020036101000a031916815260200191505b5086810384528b818151815260200191508051906020019080838360005b8381101561062557808201518184015260208101905061060a565b50505050905090810190601f1680156106525780820380516001836020036101000a031916815260200191505b5086810383528a818151815260200191508051906020019080838360005b8381101561068b578082015181840152602081019050610670565b50505050905090810190601f1680156106b85780820380516001836020036101000a031916815260200191505b50868103825287818151815260200191508051906020019080838360005b838110156106f15780820151818401526020810190506106d6565b50505050905090810190601f16801561071e5780820380516001836020036101000a031916815260200191505b509c5050505050505050505050505060405180910390f35b6000606080606080600080600060028981548110151561075257fe5b9060005260206000200160009054906101000a900473ffffffffffffffffffffffffffffffffffffffff169050600160008273ffffffffffffffffffffffffffffffffffffffff1673ffffffffffffffffffffffffffffffffffffffff1681526020019081526020016000206000018054600181600116156101000203166002900480601f0160208091040260200160405190810160405280929190818152602001828054600181600116156101000203166002900480156108555780601f1061082a57610100808354040283529160200191610855565b820191906000526020600020905b81548152906001019060200180831161083857829003601f168201915b50505050509650600160008273ffffffffffffffffffffffffffffffffffffffff1673ffffffffffffffffffffffffffffffffffffffff1681526020019081526020016000206001018054600181600116156101000203166002900480601f0160208091040260200160405190810160405280929190818152602001828054600181600116156101000203166002900480156109325780601f1061090757610100808354040283529160200191610932565b820191906000526020600020905b81548152906001019060200180831161091557829003601f168201915b50505050509550600160008273ffffffffffffffffffffffffffffffffffffffff1673ffffffffffffffffffffffffffffffffffffffff1681526020019081526020016000206002018054600181600116156101000203166002900480601f016020809104026020016040519081016040528092919081815260200182805460018160011615610100020316600290048015610a0f5780601f106109e457610100808354040283529160200191610a0f565b820191906000526020600020905b8154815290600101906020018083116109f257829003601f168201915b50505050509450600160008273ffffffffffffffffffffffffffffffffffffffff1673ffffffffffffffffffffffffffffffffffffffff1681526020019081526020016000206003018054600181600116156101000203166002900480601f016020809104026020016040519081016040528092919081815260200182805460018160011615610100020316600290048015610aec5780601f10610ac157610100808354040283529160200191610aec565b820191906000526020600020905b815481529060010190602001808311610acf57829003601f168201915b50505050509350600160008273ffffffffffffffffffffffffffffffffffffffff1673ffffffffffffffffffffffffffffffffffffffff16815260200190815260200160002060040160009054906101000a900460ff169250600160008273ffffffffffffffffffffffffffffffffffffffff1673ffffffffffffffffffffffffffffffffffffffff16815260200190815260200160002060050154915080878787878787975097509750975097509750975050919395979092949650565b6000600160008373ffffffffffffffffffffffffffffffffffffffff1673ffffffffffffffffffffffffffffffffffffffff168152602001908152602001600020600501549050919050565b6000809054906101000a900473ffffffffffffffffffffffffffffffffffffffff1673ffffffffffffffffffffffffffffffffffffffff163373ffffffffffffffffffffffffffffffffffffffff161415610c86576000809054906101000a900473ffffffffffffffffffffffffffffffffffffffff1673ffffffffffffffffffffffffffffffffffffffff16ff5b565b6000600280549050905090565b8573__EmailRegex____________________________6332ac752b826040518263ffffffff167c01000000000000000000000000000000000000000000000000000000000281526004018080602001828103825283818151815260200191508051906020019080838360005b83811015610d1c578082015181840152602081019050610d01565b50505050905090810190601f168015610d495780820380516001836020036101000a031916815260200191505b509250505060206040518083038186803b158015610d6657600080fd5b505af4158015610d7a573d6000803e3d6000fd5b505050506040513d6020811015610d9057600080fd5b81019080805190602001909291905050501515610dac57600080fd5b836000807f2d3734a8e47ac8316e500ac231c90a6e1848ca2285f40d07eaa52005e4b3a0e933604051808273ffffffffffffffffffffffffffffffffffffffff1673ffffffffffffffffffffffffffffffffffffffff16815260200191505060405180910390a160e0604051908101604052808c81526020018b81526020018a8152602001898152602001886001811115610e4357fe5b815260200187815260200186815250600160003373ffffffffffffffffffffffffffffffffffffffff1673ffffffffffffffffffffffffffffffffffffffff1681526020019081526020016000206000820151816000019080519060200190610ead92919061159d565b506020820151816001019080519060200190610eca92919061159d565b506040820151816002019080519060200190610ee792919061159d565b506060820151816003019080519060200190610f0492919061159d565b5060808201518160040160006101000a81548160ff02191690836001811115610f2957fe5b021790555060a0820151816005015560c0820151816006019080519060200190610f5492919061159d565b5090505060006001811115610f6557fe5b836001811115610f7157fe5b141561107f5760009150600090505b60028054905081101561101057600281815481101515610f9c57fe5b9060005260206000200160009054906101000a900473ffffffffffffffffffffffffffffffffffffffff1673ffffffffffffffffffffffffffffffffffffffff163373ffffffffffffffffffffffffffffffffffffffff1614156110035760019150611010565b8080600101915050610f80565b81151561107e5760023390806001815401808255809150509060018203906000526020600020016000909192909190916101000a81548173ffffffffffffffffffffffffffffffffffffffff021916908373ffffffffffffffffffffffffffffffffffffffff160217905550505b5b5050505050505050505050565b6060806060806000806060600160003373ffffffffffffffffffffffffffffffffffffffff1673ffffffffffffffffffffffffffffffffffffffff1681526020019081526020016000206000018054600181600116156101000203166002900480601f01602080910402602001604051908101604052809291908181526020018280546001816001161561010002031660029004801561116d5780601f106111425761010080835404028352916020019161116d565b820191906000526020600020905b81548152906001019060200180831161115057829003601f168201915b50505050509650600160003373ffffffffffffffffffffffffffffffffffffffff1673ffffffffffffffffffffffffffffffffffffffff1681526020019081526020016000206001018054600181600116156101000203166002900480601f01602080910402602001604051908101604052809291908181526020018280546001816001161561010002031660029004801561124a5780601f1061121f5761010080835404028352916020019161124a565b820191906000526020600020905b81548152906001019060200180831161122d57829003601f168201915b50505050509550600160003373ffffffffffffffffffffffffffffffffffffffff1673ffffffffffffffffffffffffffffffffffffffff1681526020019081526020016000206002018054600181600116156101000203166002900480601f0160208091040260200160405190810160405280929190818152602001828054600181600116156101000203166002900480156113275780601f106112fc57610100808354040283529160200191611327565b820191906000526020600020905b81548152906001019060200180831161130a57829003601f168201915b50505050509450600160003373ffffffffffffffffffffffffffffffffffffffff1673ffffffffffffffffffffffffffffffffffffffff1681526020019081526020016000206003018054600181600116156101000203166002900480601f0160208091040260200160405190810160405280929190818152602001828054600181600116156101000203166002900480156114045780601f106113d957610100808354040283529160200191611404565b820191906000526020600020905b8154815290600101906020018083116113e757829003601f168201915b50505050509350600160003373ffffffffffffffffffffffffffffffffffffffff1673ffffffffffffffffffffffffffffffffffffffff16815260200190815260200160002060040160009054906101000a900460ff169250600160003373ffffffffffffffffffffffffffffffffffffffff1673ffffffffffffffffffffffffffffffffffffffff168152602001908152602001600020600501549150600160003373ffffffffffffffffffffffffffffffffffffffff1673ffffffffffffffffffffffffffffffffffffffff1681526020019081526020016000206006018054600181600116156101000203166002900480601f0160208091040260200160405190810160405280929190818152602001828054600181600116156101000203166002900480156115785780601f1061154d57610100808354040283529160200191611578565b820191906000526020600020905b81548152906001019060200180831161155b57829003601f168201915b5050505050905086868686868686965096509650965096509650965090919293949596565b828054600181600116156101000203166002900490600052602060002090601f016020900481019282601f106115de57805160ff191683800117855561160c565b8280016001018555821561160c579182015b8281111561160b5782518255916020019190600101906115f0565b5b509050611619919061161d565b5090565b61163f91905b8082111561163b576000816000905550600101611623565b5090565b905600a165627a7a72305820d0384de13093ba790ac9bd734f68309a5a72f56ff497ed5a4ba0da17a1461b970029",
  "source": "pragma solidity ^0.4.24;\n\nimport \"./EmailRegex.sol\";\nimport \"./StringUtils.sol\";\n\n/** @title Accounts. */\ncontract Accounts {\n    \n  address private owner;\n  mapping (address => account) private accounts;\n  address[] private verifiers;\n  \n  enum AccountType {Verifier, Requester}\n  struct account \n  {\n    string name;\n    string email;\n    string logo;\n    string description;\n    AccountType aType;\n    uint verificationPrice;\n    string institute;\n  }\n\n  event Registered (address user);\n  \n  /** @dev check for the valid email address.\n      * @param _email email address.\n      * @return bool require.\n      */\n  modifier isEmailValid(string _email) \n  {\n    require(EmailRegex.matches(_email));\n    _;\n  }\n\n  /** @dev adds verifiers address if not exists .\n      * @param _aType AccountType.\n      */\n  modifier addVerifier(AccountType _aType)\n  {\n      _;\n      if(_aType == AccountType.Verifier){\n        bool found = false;\n        for (uint i=0; i<verifiers.length; i++) {\n          if (msg.sender == verifiers[i]) {\n              found = true;\n              break; \n          }\n        }\n        if(!found){\n            verifiers.push(msg.sender);   \n        }\n    }\n  }\n\n  constructor() \n  public \n  {\n    owner = msg.sender;\n  }\n\n  /** @dev update user account details.\n      * @param _name user name.\n      * @param _email user email.\n      * @param _logo user logo.\n      * @param _description user description.\n      * @param _aType user aType.\n      * @param price document verification price.\n      */\n  function register(string _name, string _email, string _logo, string _description, AccountType _aType, uint price, string _institute) \n  public \n  payable\n  isEmailValid(_email)\n  addVerifier(_aType)\n  {\n    emit Registered(msg.sender);\n    accounts[msg.sender] = account({\n      name: _name, \n      email: _email, \n      logo: _logo, \n      description: _description,\n      aType: _aType,\n      verificationPrice: price,\n      institute: _institute\n    });\n  }\n\n  /** @dev get user account details.\n      * @return _name user name.\n      * @return _email user email.\n      * @return _logo user logo.\n      * @return _description user description.\n      * @return _aType user aType.\n      * @return price document verification price.\n      */\n  function getAccount() \n  public \n  view \n  returns (string name, string email, string logo, string description, AccountType aType, uint price, string institute) \n  {\n    name = accounts[msg.sender].name;\n    email = accounts[msg.sender].email;\n    logo = accounts[msg.sender].logo;\n    description = accounts[msg.sender].description;\n    aType = accounts[msg.sender].aType;\n    price = accounts[msg.sender].verificationPrice;\n    institute = accounts[msg.sender].institute;\n    return (name, email, logo, description, aType, price, institute);\n  }\n\n  /** @dev get verifiers count.\n      * @return total verifiers count.\n      */\n  function verifiersCount() \n  public \n  view \n  returns (uint total) {\n      return verifiers.length;\n  }\n\n  /** @dev get verifier details.\n      * @param pIndex index number.\n      * @return verifierAddr verifier address.\n      * @return _name user name.\n      * @return _email user email.\n      * @return _logo user logo.\n      * @return _description user description.\n      * @return _aType user aType.\n      * @return price document verification price.\n      */\n  function getVerifier(uint pIndex)\n  public \n  view\n  returns (address verifier, string name, string email, string logo, string description, AccountType aType, uint price) \n  {\n    address verifierAddr = verifiers[pIndex];\n    name = accounts[verifierAddr].name;\n    email = accounts[verifierAddr].email;\n    logo = accounts[verifierAddr].logo;\n    description = accounts[verifierAddr].description;\n    aType = accounts[verifierAddr].aType;\n    price = accounts[verifierAddr].verificationPrice;\n    return (verifierAddr, name, email, logo, description, aType, price);\n  }\n  \n  /** @dev get verification price of verifier.\n      * @param _account verifier address.\n      * @return price document verification price.\n      */\n  function getPrice(address _account)\n  public \n  view\n  returns(uint price){\n    return (accounts[_account].verificationPrice);\n  }\n\n  /** @dev kill smart contract if something bad happens.\n      */\n  function kill() \n  public \n  {\n    if (msg.sender == owner) selfdestruct(owner);\n  }\n  \n}",
  "sourcePath": "/home/bharat/Desktop/Consensys-Academy-Dev-BootCamp-2018-Final-Project/Consensys-Academy-Dev-BootCamp-2018-RumeelHussain-Final-Project/contracts/Accounts.sol",
  "compiler": {
    "name": "solc",
    "version": "0.4.26+commit.4563c3fc.Emscripten.clang"
  },
  "schemaVersion": "2.0.3",
  "updatedAt": "2023-03-29T07:50:53.469Z"
}